{
  "_format": "hh-sol-artifact-1",
  "contractName": "Ledger",
  "sourceName": "contracts/Ledger.sol",
  "abi": [
    {
      "inputs": [],
      "name": "ZamaProtocolUnsupported",
      "type": "error"
    },
    {
      "anonymous": false,
      "inputs": [
        {
          "indexed": true,
          "internalType": "address",
          "name": "user",
          "type": "address"
        }
      ],
      "name": "BalanceUpdated",
      "type": "event"
    },
    {
      "anonymous": false,
      "inputs": [
        {
          "indexed": true,
          "internalType": "address",
          "name": "user",
          "type": "address"
        }
      ],
      "name": "BudgetUpdated",
      "type": "event"
    },
    {
      "anonymous": false,
      "inputs": [
        {
          "indexed": true,
          "internalType": "address",
          "name": "user",
          "type": "address"
        },
        {
          "indexed": false,
          "internalType": "uint256",
          "name": "transactionIndex",
          "type": "uint256"
        }
      ],
      "name": "TransactionAdded",
      "type": "event"
    },
    {
      "inputs": [
        {
          "internalType": "address",
          "name": "",
          "type": "address"
        }
      ],
      "name": "accounts",
      "outputs": [
        {
          "internalType": "euint32",
          "name": "balance",
          "type": "bytes32"
        },
        {
          "internalType": "euint32",
          "name": "monthlyExpense",
          "type": "bytes32"
        },
        {
          "internalType": "euint32",
          "name": "monthlyBudget",
          "type": "bytes32"
        },
        {
          "internalType": "ebool",
          "name": "isOverBudget",
          "type": "bytes32"
        },
        {
          "internalType": "ebool",
          "name": "isBudgetWarning",
          "type": "bytes32"
        },
        {
          "internalType": "uint256",
          "name": "lastUpdateMonth",
          "type": "uint256"
        }
      ],
      "stateMutability": "view",
      "type": "function"
    },
    {
      "inputs": [
        {
          "internalType": "externalEuint32",
          "name": "amountEuint32",
          "type": "bytes32"
        },
        {
          "internalType": "uint256",
          "name": "timestamp",
          "type": "uint256"
        },
        {
          "internalType": "uint256",
          "name": "category",
          "type": "uint256"
        },
        {
          "internalType": "bool",
          "name": "isIncome",
          "type": "bool"
        },
        {
          "internalType": "uint256",
          "name": "categoryKey",
          "type": "uint256"
        },
        {
          "internalType": "uint256",
          "name": "month",
          "type": "uint256"
        },
        {
          "internalType": "bytes",
          "name": "amountProof",
          "type": "bytes"
        }
      ],
      "name": "addTransaction",
      "outputs": [],
      "stateMutability": "nonpayable",
      "type": "function"
    },
    {
      "inputs": [
        {
          "internalType": "address",
          "name": "",
          "type": "address"
        },
        {
          "internalType": "uint256",
          "name": "",
          "type": "uint256"
        }
      ],
      "name": "categoryTotals",
      "outputs": [
        {
          "internalType": "euint32",
          "name": "",
          "type": "bytes32"
        }
      ],
      "stateMutability": "view",
      "type": "function"
    },
    {
      "inputs": [],
      "name": "confidentialProtocolId",
      "outputs": [
        {
          "internalType": "uint256",
          "name": "",
          "type": "uint256"
        }
      ],
      "stateMutability": "view",
      "type": "function"
    },
    {
      "inputs": [],
      "name": "getBalance",
      "outputs": [
        {
          "internalType": "euint32",
          "name": "",
          "type": "bytes32"
        }
      ],
      "stateMutability": "view",
      "type": "function"
    },
    {
      "inputs": [
        {
          "internalType": "uint256",
          "name": "category",
          "type": "uint256"
        }
      ],
      "name": "getCategoryTotal",
      "outputs": [
        {
          "internalType": "euint32",
          "name": "",
          "type": "bytes32"
        }
      ],
      "stateMutability": "view",
      "type": "function"
    },
    {
      "inputs": [],
      "name": "getIsBudgetWarning",
      "outputs": [
        {
          "internalType": "ebool",
          "name": "",
          "type": "bytes32"
        }
      ],
      "stateMutability": "view",
      "type": "function"
    },
    {
      "inputs": [],
      "name": "getIsOverBudget",
      "outputs": [
        {
          "internalType": "ebool",
          "name": "",
          "type": "bytes32"
        }
      ],
      "stateMutability": "view",
      "type": "function"
    },
    {
      "inputs": [],
      "name": "getMonthlyBudget",
      "outputs": [
        {
          "internalType": "euint32",
          "name": "",
          "type": "bytes32"
        }
      ],
      "stateMutability": "view",
      "type": "function"
    },
    {
      "inputs": [],
      "name": "getMonthlyExpense",
      "outputs": [
        {
          "internalType": "euint32",
          "name": "",
          "type": "bytes32"
        }
      ],
      "stateMutability": "view",
      "type": "function"
    },
    {
      "inputs": [
        {
          "internalType": "uint256",
          "name": "index",
          "type": "uint256"
        }
      ],
      "name": "getTransaction",
      "outputs": [
        {
          "components": [
            {
              "internalType": "euint32",
              "name": "amount",
              "type": "bytes32"
            },
            {
              "internalType": "uint256",
              "name": "timestamp",
              "type": "uint256"
            },
            {
              "internalType": "uint256",
              "name": "category",
              "type": "uint256"
            },
            {
              "internalType": "bool",
              "name": "isIncome",
              "type": "bool"
            },
            {
              "internalType": "uint256",
              "name": "month",
              "type": "uint256"
            }
          ],
          "internalType": "struct Ledger.Transaction",
          "name": "",
          "type": "tuple"
        }
      ],
      "stateMutability": "view",
      "type": "function"
    },
    {
      "inputs": [],
      "name": "getTransactionCount",
      "outputs": [
        {
          "internalType": "uint256",
          "name": "",
          "type": "uint256"
        }
      ],
      "stateMutability": "view",
      "type": "function"
    },
    {
      "inputs": [
        {
          "internalType": "uint256",
          "name": "month",
          "type": "uint256"
        }
      ],
      "name": "queryTransactionsByMonth",
      "outputs": [
        {
          "internalType": "uint256[]",
          "name": "",
          "type": "uint256[]"
        }
      ],
      "stateMutability": "view",
      "type": "function"
    },
    {
      "inputs": [
        {
          "internalType": "externalEuint32",
          "name": "budgetEuint32",
          "type": "bytes32"
        },
        {
          "internalType": "bytes",
          "name": "budgetProof",
          "type": "bytes"
        }
      ],
      "name": "setMonthlyBudget",
      "outputs": [],
      "stateMutability": "nonpayable",
      "type": "function"
    },
    {
      "inputs": [
        {
          "internalType": "address",
          "name": "",
          "type": "address"
        },
        {
          "internalType": "uint256",
          "name": "",
          "type": "uint256"
        }
      ],
      "name": "transactions",
      "outputs": [
        {
          "internalType": "euint32",
          "name": "amount",
          "type": "bytes32"
        },
        {
          "internalType": "uint256",
          "name": "timestamp",
          "type": "uint256"
        },
        {
          "internalType": "uint256",
          "name": "category",
          "type": "uint256"
        },
        {
          "internalType": "bool",
          "name": "isIncome",
          "type": "bool"
        },
        {
          "internalType": "uint256",
          "name": "month",
          "type": "uint256"
        }
      ],
      "stateMutability": "view",
      "type": "function"
    }
  ],
  "bytecode": "0x6080604052346101255761001161015c565b50466001036100ee5761002261015c565b5061002b610129565b5f81525f60208201525f60408201525b80517f9e7b61f58c47dc699ac88507c4f5bb9f121c03808c5676a8078fe583e464970080546001600160a01b039283166001600160a01b03199182161790915560208301517f9e7b61f58c47dc699ac88507c4f5bb9f121c03808c5676a8078fe583e464970180549184169183169190911790556040928301517f9e7b61f58c47dc699ac88507c4f5bb9f121c03808c5676a8078fe583e46497028054919093169116179055516111b390816101d68239f35b4662aa36a70361010557610100610176565b61003b565b46617a690361011657610100610176565b6373cac13b60e01b5f5260045ffd5b5f80fd5b60405190606082016001600160401b0381118382101761014857604052565b634e487b7160e01b5f52604160045260245ffd5b610164610129565b905f82525f60208301525f6040830152565b61017e61015c565b50610187610129565b73f0ffdc93b7e186bc2f8cb3daa75d86d1930a433d81527392c920834ec8941d2c77d188936e1f7a6f49c127602082015273be0e383937d564d7ff0bc3b46c51f0bf8d5c311a60408201529056fe6080806040526004361015610012575f80fd5b5f3560e01c90816312065fe014610a485750806314538128146109c75780632e7700f0146109a057806333ea3dc8146108ba57806344c26376146108005780635e5c06e21461079257806382ed2934146107695780638927b030146107475780639197ac181461071e57806393fde9ae146102fd57806396faa94d146102b95780639a7dfc77146102855780639bf5f65d14610117578063b394c0fe146100ee5763ca35d672146100c1575f80fd5b346100ea575f3660031901126100ea57335f525f6020526020600260405f200154604051908152f35b5f80fd5b346100ea575f3660031901126100ea57335f525f6020526020600360405f200154604051908152f35b346100ea5760203660031901126100ea57600435335f52600160205260405f20805461014281610ba0565b916101506040519384610af7565b81835260208301905f5260205f205f915b8383106102675785855f5f5b82518110156101a8578360806101838386610bb8565b51015114610194575b60010161016d565b906101a0600191610bcc565b91905061018c565b506101cb6101b582610ba0565b916101c36040519384610af7565b808352610ba0565b602082019290601f19013684375f905f5b8151811015610223578560806101f28385610bb8565b51015114610203575b6001016101dc565b9161021b818461021560019488610bb8565b52610bcc565b9290506101fb565b8484604051918291602083019060208452518091526040830191905f5b81811061024e575050500390f35b8251845285945060209384019390920191600101610240565b6005602060019261027785610b19565b815201920192019190610161565b346100ea5760203660031901126100ea57335f52600260205260405f206004355f52602052602060405f2054604051908152f35b346100ea5760403660031901126100ea576001600160a01b036102da610a6a565b165f52600260205260405f206024355f52602052602060405f2054604051908152f35b346100ea5760e03660031901126100ea57606435801580158083036100ea576084359260a4359060c43567ffffffffffffffff81116100ea5761036461034a61036c923690600401610aad565b335f525f60205261035d60405f20610bda565b3691610b5a565b600435610c28565b9260405161037981610adb565b8481526020810191602435835260408201906044358252606083019081526080830191868352335f52600160205260405f2080546801000000000000000081101561070a576103cd91600182018155610a80565b9590956106f757600494518655516001860155516002850155600384019051151560ff80198354169116179055519101555f146106145761049492335f525f60205261041d8360405f2054610eff565b335f525f60205260405f20555b335f525f60205261044060405f2054309061110b565b335f525f6020526104553360405f205461110b565b6105b0575b50335f52600260205260405f20835f5260205260405f20541561058c575b335f52600260205260405f20835f5260205260405f2054610eff565b90335f52600260205260405f20905f5260205260405f20556104b4610d51565b335f525f6020526104c860405f2054610eb1565b335f525f6020526104df600160405f200154610eb1565b335f525f6020526104f6600360405f200154610eb1565b335f525f60205261050d600460405f200154610eb1565b335f52600160205260405f20545f198101908111610578576040519081527f6aaaa439e0a179aceb5673e1912869917530717c98bc1001496a80b51cf8810a60203392a2337f13bc0fcf14f8f3ca0cb562786d0618c57a13e52bbdb4c041763d96acbfa076245f80a2005b634e487b7160e01b5f52601160045260245ffd5b610594610fb3565b335f52600260205260405f20845f5260205260405f2055610478565b335f525f602052600560405f20015481145f146105f65750335f525f6020526105e081600160405f200154610eff565b335f525f602052600160405f2001555b8361045a565b335f90815260208190526040902060018101839055600501556105f0565b335f525f60205260405f2054928284156106e7575b83156106d5575b60209060646001600160a01b035f5160206111875f395f51905f525416965f60405198899485936303056db360e31b8552600485015260248401528160448401525af180156106ca575f90610696575b6104949450335f525f60205260405f205561042a565b506020843d6020116106c2575b816106b060209383610af7565b810103126100ea576104949351610680565b3d91506106a3565b6040513d5f823e3d90fd5b5060206106e0610fb3565b9050610630565b93506106f1610fb3565b93610629565b634e487b7160e01b5f525f60045260245ffd5b634e487b7160e01b5f52604160045260245ffd5b346100ea575f3660031901126100ea57335f525f6020526020600460405f200154604051908152f35b346100ea575f3660031901126100ea576020610761610ed0565b604051908152f35b346100ea575f3660031901126100ea57335f525f6020526020600160405f200154604051908152f35b346100ea5760203660031901126100ea576001600160a01b036107b3610a6a565b165f525f60205260c060405f2080549060018101549060028101546003820154906005600484015493015493604051958652602086015260408501526060840152608083015260a0820152f35b346100ea5760403660031901126100ea5760243567ffffffffffffffff81116100ea5761036461034a610837923690600401610aad565b335f525f602052600260405f20015561084e610d51565b335f525f602052610865600260405f200154610eb1565b335f525f60205261087c600360405f200154610eb1565b335f525f602052610893600460405f200154610eb1565b337f4554daa5d4c10eb040bcd783ac0c2dc6ce0a0ee413a2bf459b401c2c096beb955f80a2005b346100ea5760203660031901126100ea576004355f60806040516108dd81610adb565b8281528260208201528260408201528260608201520152335f52600160205260405f205481101561095b5761092861092260a092335f52600160205260405f20610a80565b50610b19565b60806040519180518352602081015160208401526040810151604084015260608101511515606084015201516080820152f35b60405162461bcd60e51b815260206004820152601f60248201527f5472616e73616374696f6e20696e646578206f7574206f6620626f756e6473006044820152606490fd5b346100ea575f3660031901126100ea57335f526001602052602060405f2054604051908152f35b346100ea5760403660031901126100ea576109e0610a6a565b6001600160a01b0360243591165f52600160205260405f2080548210156100ea5760a091610a0d91610a80565b508054906001810154906002810154600460ff6003840154169201549260405194855260208501526040840152151560608301526080820152f35b346100ea575f3660031901126100ea57602090335f525f825260405f20548152f35b600435906001600160a01b03821682036100ea57565b8054821015610a99575f52600560205f20910201905f90565b634e487b7160e01b5f52603260045260245ffd5b9181601f840112156100ea5782359167ffffffffffffffff83116100ea57602083818601950101116100ea57565b60a0810190811067ffffffffffffffff82111761070a57604052565b90601f8019910116810190811067ffffffffffffffff82111761070a57604052565b90604051610b2681610adb565b60806004829480548452600181015460208501526002810154604085015260ff600382015416151560608501520154910152565b92919267ffffffffffffffff821161070a5760405191610b84601f8201601f191660200184610af7565b8294818452818301116100ea578281602093845f960137010152565b67ffffffffffffffff811161070a5760051b60200190565b8051821015610a995760209160051b010190565b5f1981146105785760010190565b600290805415610c19575b60018101805415610c09575b5001805415610bfd5750565b610c05610fb3565b9055565b610c11610fb3565b90555f610bf1565b610c21610fb3565b8155610be5565b60209182916001600160a01b035f5160206111875f395f51905f525416905f60a460405180978196829563045fc19560e11b84526004840152336024840152608060448401528051918291826084860152018484015e818101830184905260046064830152601f01601f191681010301925af19081156106ca575f91610d1f575b506001600160a01b037f9e7b61f58c47dc699ac88507c4f5bb9f121c03808c5676a8078fe583e46497005416803b156100ea57604051630f8e573b60e21b815260048101839052336024820152905f908290604490829084905af180156106ca57610d12575090565b5f610d1c91610af7565b90565b90506020813d602011610d49575b81610d3a60209383610af7565b810103126100ea57515f610ca9565b3d9150610d2d565b335f525f60205260405f20610d6581610bda565b60018101805490610d7c6002840192835490611001565b600384015554905f60206001600160a01b035f5160206111875f395f51905f525416604460405180948193639cd07acb60e01b8352600a6004840152600460248401525af19081156106ca575f91610e7f575b505f92610ddc9190611086565b905460206001600160a01b035f5160206111875f395f51905f525416604460405180968193639cd07acb60e01b835260086004840152600460248401525af19283156106ca575f93610e47575b5090610e3c83610e429360049550611086565b90611001565b910155565b9250906020833d602011610e77575b81610e6360209383610af7565b810103126100ea5791519190610e3c610e29565b3d9150610e56565b90506020813d602011610ea9575b81610e9a60209383610af7565b810103126100ea57515f610dcf565b3d9150610e8d565b80610eb95750565b610ece90610ec7308261110b565b339061110b565b565b46600103610edd57600190565b4662aa36a703610eed5761271190565b617a694614610efa575f90565b5f1990565b908115610fa3575b8015610f91575b60209060646001600160a01b035f5160206111875f395f51905f525416935f604051958694859363022f65e760e31b8552600485015260248401528160448401525af19081156106ca575f91610f62575090565b90506020813d602011610f89575b81610f7d60209383610af7565b810103126100ea575190565b3d9150610f70565b506020610f9c610fb3565b9050610f0e565b9050610fad610fb3565b90610f07565b5f60206001600160a01b035f5160206111875f395f51905f525416604460405180948193639cd07acb60e01b8352816004840152600460248401525af19081156106ca575f91610f62575090565b908115611076575b8015611064575b60209060646001600160a01b035f5160206111875f395f51905f525416935f60405195869485936385362ee760e01b8552600485015260248401528160448401525af19081156106ca575f91610f62575090565b50602061106f610fb3565b9050611010565b9050611080610fb3565b90611009565b9081156110fb575b80156110e9575b60209060646001600160a01b035f5160206111875f395f51905f525416935f6040519586948593630afe14ad60e31b8552600485015260248401528160448401525af19081156106ca575f91610f62575090565b5060206110f4610fb3565b9050611095565b9050611105610fb3565b9061108e565b6001600160a01b037f9e7b61f58c47dc699ac88507c4f5bb9f121c03808c5676a8078fe583e4649700541691823b156100ea57604051635ca4b5b160e11b815260048101929092526001600160a01b03166024820152905f908290604490829084905af180156106ca5761117c5750565b5f610ece91610af756fe9e7b61f58c47dc699ac88507c4f5bb9f121c03808c5676a8078fe583e4649701a164736f6c634300081b000a",
  "linkReferences": {},
  "deployedLinkReferences": {}
}